{
  "_format": "hh3-artifact-1",
  "contractName": "BantahEscrow",
  "sourceName": "contracts/BantahEscrow.sol",
  "abi": [
    {
      "inputs": [
        {
          "internalType": "address",
          "name": "initialOwner",
          "type": "address"
        }
      ],
      "stateMutability": "nonpayable",
      "type": "constructor"
    },
    {
      "anonymous": false,
      "inputs": [
        {
          "indexed": true,
          "internalType": "address",
          "name": "caller",
          "type": "address"
        },
        {
          "indexed": true,
          "internalType": "uint256",
          "name": "challengeId",
          "type": "uint256"
        },
        {
          "indexed": true,
          "internalType": "bytes32",
          "name": "metadataHash",
          "type": "bytes32"
        },
        {
          "indexed": false,
          "internalType": "string",
          "name": "challengeType",
          "type": "string"
        }
      ],
      "name": "ChallengeCreatedLogged",
      "type": "event"
    },
    {
      "anonymous": false,
      "inputs": [
        {
          "indexed": true,
          "internalType": "address",
          "name": "caller",
          "type": "address"
        },
        {
          "indexed": true,
          "internalType": "uint256",
          "name": "challengeId",
          "type": "uint256"
        },
        {
          "indexed": false,
          "internalType": "uint8",
          "name": "resultCode",
          "type": "uint8"
        }
      ],
      "name": "ChallengeSettledSignal",
      "type": "event"
    },
    {
      "anonymous": false,
      "inputs": [
        {
          "indexed": true,
          "internalType": "address",
          "name": "to",
          "type": "address"
        },
        {
          "indexed": false,
          "internalType": "uint256",
          "name": "amount",
          "type": "uint256"
        }
      ],
      "name": "NativeWithdrawn",
      "type": "event"
    },
    {
      "anonymous": false,
      "inputs": [
        {
          "indexed": true,
          "internalType": "address",
          "name": "previousOwner",
          "type": "address"
        },
        {
          "indexed": true,
          "internalType": "address",
          "name": "newOwner",
          "type": "address"
        }
      ],
      "name": "OwnershipTransferred",
      "type": "event"
    },
    {
      "anonymous": false,
      "inputs": [
        {
          "indexed": true,
          "internalType": "address",
          "name": "sender",
          "type": "address"
        },
        {
          "indexed": false,
          "internalType": "uint256",
          "name": "amount",
          "type": "uint256"
        }
      ],
      "name": "StakeLockedNative",
      "type": "event"
    },
    {
      "anonymous": false,
      "inputs": [
        {
          "indexed": true,
          "internalType": "address",
          "name": "sender",
          "type": "address"
        },
        {
          "indexed": true,
          "internalType": "address",
          "name": "token",
          "type": "address"
        },
        {
          "indexed": false,
          "internalType": "uint256",
          "name": "amount",
          "type": "uint256"
        }
      ],
      "name": "StakeLockedToken",
      "type": "event"
    },
    {
      "anonymous": false,
      "inputs": [
        {
          "indexed": true,
          "internalType": "address",
          "name": "token",
          "type": "address"
        },
        {
          "indexed": true,
          "internalType": "address",
          "name": "to",
          "type": "address"
        },
        {
          "indexed": false,
          "internalType": "uint256",
          "name": "amount",
          "type": "uint256"
        }
      ],
      "name": "TokenWithdrawn",
      "type": "event"
    },
    {
      "inputs": [
        {
          "internalType": "address",
          "name": "token",
          "type": "address"
        },
        {
          "internalType": "uint256",
          "name": "amount",
          "type": "uint256"
        }
      ],
      "name": "depositToken",
      "outputs": [
        {
          "internalType": "bool",
          "name": "",
          "type": "bool"
        }
      ],
      "stateMutability": "nonpayable",
      "type": "function"
    },
    {
      "inputs": [],
      "name": "lockStakeNative",
      "outputs": [
        {
          "internalType": "bool",
          "name": "",
          "type": "bool"
        }
      ],
      "stateMutability": "payable",
      "type": "function"
    },
    {
      "inputs": [
        {
          "internalType": "address",
          "name": "token",
          "type": "address"
        },
        {
          "internalType": "uint256",
          "name": "amount",
          "type": "uint256"
        }
      ],
      "name": "lockStakeToken",
      "outputs": [
        {
          "internalType": "bool",
          "name": "",
          "type": "bool"
        }
      ],
      "stateMutability": "nonpayable",
      "type": "function"
    },
    {
      "inputs": [
        {
          "internalType": "uint256",
          "name": "challengeId",
          "type": "uint256"
        },
        {
          "internalType": "bytes32",
          "name": "metadataHash",
          "type": "bytes32"
        },
        {
          "internalType": "string",
          "name": "challengeType",
          "type": "string"
        }
      ],
      "name": "logChallengeCreated",
      "outputs": [
        {
          "internalType": "bool",
          "name": "",
          "type": "bool"
        }
      ],
      "stateMutability": "nonpayable",
      "type": "function"
    },
    {
      "inputs": [],
      "name": "owner",
      "outputs": [
        {
          "internalType": "address",
          "name": "",
          "type": "address"
        }
      ],
      "stateMutability": "view",
      "type": "function"
    },
    {
      "inputs": [],
      "name": "settle",
      "outputs": [
        {
          "internalType": "bool",
          "name": "",
          "type": "bool"
        }
      ],
      "stateMutability": "nonpayable",
      "type": "function"
    },
    {
      "inputs": [
        {
          "internalType": "uint256",
          "name": "challengeId",
          "type": "uint256"
        },
        {
          "internalType": "uint8",
          "name": "resultCode",
          "type": "uint8"
        }
      ],
      "name": "settle",
      "outputs": [
        {
          "internalType": "bool",
          "name": "",
          "type": "bool"
        }
      ],
      "stateMutability": "nonpayable",
      "type": "function"
    },
    {
      "inputs": [
        {
          "internalType": "uint256",
          "name": "challengeId",
          "type": "uint256"
        },
        {
          "internalType": "uint8",
          "name": "resultCode",
          "type": "uint8"
        }
      ],
      "name": "settleChallenge",
      "outputs": [
        {
          "internalType": "bool",
          "name": "",
          "type": "bool"
        }
      ],
      "stateMutability": "nonpayable",
      "type": "function"
    },
    {
      "inputs": [],
      "name": "settleChallenge",
      "outputs": [
        {
          "internalType": "bool",
          "name": "",
          "type": "bool"
        }
      ],
      "stateMutability": "nonpayable",
      "type": "function"
    },
    {
      "inputs": [
        {
          "internalType": "address",
          "name": "newOwner",
          "type": "address"
        }
      ],
      "name": "transferOwnership",
      "outputs": [],
      "stateMutability": "nonpayable",
      "type": "function"
    },
    {
      "inputs": [
        {
          "internalType": "address payable",
          "name": "to",
          "type": "address"
        },
        {
          "internalType": "uint256",
          "name": "amount",
          "type": "uint256"
        }
      ],
      "name": "withdrawNative",
      "outputs": [
        {
          "internalType": "bool",
          "name": "",
          "type": "bool"
        }
      ],
      "stateMutability": "nonpayable",
      "type": "function"
    },
    {
      "inputs": [
        {
          "internalType": "address",
          "name": "token",
          "type": "address"
        },
        {
          "internalType": "address",
          "name": "to",
          "type": "address"
        },
        {
          "internalType": "uint256",
          "name": "amount",
          "type": "uint256"
        }
      ],
      "name": "withdrawToken",
      "outputs": [
        {
          "internalType": "bool",
          "name": "",
          "type": "bool"
        }
      ],
      "stateMutability": "nonpayable",
      "type": "function"
    },
    {
      "stateMutability": "payable",
      "type": "receive"
    }
  ],
  "bytecode": "0x608060405234801561000f575f80fd5b50604051610cf1380380610cf183398101604081905261002e916100c5565b6001600160a01b0381166100785760405162461bcd60e51b815260206004820152600d60248201526c24b73b30b634b21037bbb732b960991b604482015260640160405180910390fd5b5f80546001600160a01b0319166001600160a01b03831690811782556040519091907f8be0079c531659141344cd1fd0a4f28419497f9722a3daafe3b4186f6b6457e0908290a3506100f2565b5f602082840312156100d5575f80fd5b81516001600160a01b03811681146100eb575f80fd5b9392505050565b610bf2806100ff5f395ff3fe6080604052600436106100a8575f3560e01c8063747843f611610062578063747843f6146101d4578063815b960e146101e85780638da5cb5b14610207578063d4742c5d1461023d578063f0d82e271461025c578063f2fde38b1461027b575f80fd5b806301e336671461012757806307b18bde1461015b57806311da60b41461017a578063338b5dea1461018e57806334ffdb04146101ad57806371080336146101cc575f80fd5b36610123575f34116100ec5760405162461bcd60e51b81526020600482015260086024820152674e6f2076616c756560c01b60448201526064015b60405180910390fd5b60405134815233907f47a006d39604e8c47c53f4236bfeddae5654e4ab9b3b46f3973b11b16fe89a359060200160405180910390a2005b5f80fd5b348015610132575f80fd5b506101466101413660046109f4565b61029c565b60405190151581526020015b60405180910390f35b348015610166575f80fd5b50610146610175366004610a32565b610481565b348015610185575f80fd5b50610146610639565b348015610199575f80fd5b506101466101a8366004610a32565b610647565b3480156101b8575f80fd5b506101466101c7366004610a5c565b610659565b61014661069e565b3480156101df575f80fd5b50610146610714565b3480156101f3575f80fd5b50610146610202366004610a8f565b610753565b348015610212575f80fd5b505f54610225906001600160a01b031681565b6040516001600160a01b039091168152602001610152565b348015610248575f80fd5b50610146610257366004610a32565b6107a4565b348015610267575f80fd5b50610146610276366004610a5c565b61090a565b348015610286575f80fd5b5061029a610295366004610b08565b610915565b005b5f80546001600160a01b031633146102c65760405162461bcd60e51b81526004016100e390610b23565b6001600160a01b03841661030c5760405162461bcd60e51b815260206004820152600d60248201526c24b73b30b634b2103a37b5b2b760991b60448201526064016100e3565b6001600160a01b0383166103565760405162461bcd60e51b8152602060048201526011602482015270125b9d985b1a59081c9958da5c1a595b9d607a1b60448201526064016100e3565b5f82116103755760405162461bcd60e51b81526004016100e390610b47565b60405163a9059cbb60e01b81526001600160a01b038481166004830152602482018490525f919086169063a9059cbb906044016020604051808303815f875af11580156103c4573d5f803e3d5ffd5b505050506040513d601f19601f820116820180604052508101906103e89190610b6f565b9050806104295760405162461bcd60e51b815260206004820152600f60248201526e15da5d1a191c985dc819985a5b1959608a1b60448201526064016100e3565b836001600160a01b0316856001600160a01b03167f8210728e7c071f615b840ee026032693858fbcd5e5359e67e438c890f59e56208560405161046e91815260200190565b60405180910390a3506001949350505050565b5f80546001600160a01b031633146104ab5760405162461bcd60e51b81526004016100e390610b23565b6001600160a01b0383166104f55760405162461bcd60e51b8152602060048201526011602482015270125b9d985b1a59081c9958da5c1a595b9d607a1b60448201526064016100e3565b5f82116105145760405162461bcd60e51b81526004016100e390610b47565b8147101561055b5760405162461bcd60e51b8152602060048201526014602482015273496e73756666696369656e742062616c616e636560601b60448201526064016100e3565b5f836001600160a01b0316836040515f6040518083038185875af1925050503d805f81146105a4576040519150601f19603f3d011682016040523d82523d5f602084013e6105a9565b606091505b50509050806105ec5760405162461bcd60e51b815260206004820152600f60248201526e15da5d1a191c985dc819985a5b1959608a1b60448201526064016100e3565b836001600160a01b03167fc303ca808382409472acbbf899c316cf439f409f6584aae22df86dfa3c9ed5048460405161062791815260200190565b60405180910390a25060019392505050565b5f610642610714565b905090565b5f61065283836107a4565b9392505050565b60405160ff821681525f90839033907f7e4eda3205da1ece76ccdc66b622165a773465da1c934dd07757045d1d6929169060200160405180910390a350600192915050565b5f8034116106d95760405162461bcd60e51b81526020600482015260086024820152674e6f2076616c756560c01b60448201526064016100e3565b60405134815233907f47a006d39604e8c47c53f4236bfeddae5654e4ab9b3b46f3973b11b16fe89a359060200160405180910390a250600190565b6040515f80825290819033907f7e4eda3205da1ece76ccdc66b622165a773465da1c934dd07757045d1d6929169060200160405180910390a350600190565b5f8385336001600160a01b03167fcd18204baaeb33f3ad461af9e6591f3887f7adcd0c96908ed07c7af565fac0098686604051610791929190610b8e565b60405180910390a4506001949350505050565b5f6001600160a01b0383166107eb5760405162461bcd60e51b815260206004820152600d60248201526c24b73b30b634b2103a37b5b2b760991b60448201526064016100e3565b5f821161080a5760405162461bcd60e51b81526004016100e390610b47565b6040516323b872dd60e01b8152336004820152306024820152604481018390525f906001600160a01b038516906323b872dd906064016020604051808303815f875af115801561085c573d5f803e3d5ffd5b505050506040513d601f19601f820116820180604052508101906108809190610b6f565b9050806108c15760405162461bcd60e51b815260206004820152600f60248201526e151c985b9cd9995c8819985a5b1959608a1b60448201526064016100e3565b6040518381526001600160a01b0385169033907eb6cdcb2abbe2ee26c1a24375fc0234372705648c68684d672c63a67f8abb5f9060200160405180910390a35060019392505050565b5f6106528383610659565b5f546001600160a01b0316331461093e5760405162461bcd60e51b81526004016100e390610b23565b6001600160a01b0381166109845760405162461bcd60e51b815260206004820152600d60248201526c24b73b30b634b21037bbb732b960991b60448201526064016100e3565b5f80546040516001600160a01b03808516939216917f8be0079c531659141344cd1fd0a4f28419497f9722a3daafe3b4186f6b6457e091a35f80546001600160a01b0319166001600160a01b0392909216919091179055565b6001600160a01b03811681146109f1575f80fd5b50565b5f805f60608486031215610a06575f80fd5b8335610a11816109dd565b92506020840135610a21816109dd565b929592945050506040919091013590565b5f8060408385031215610a43575f80fd5b8235610a4e816109dd565b946020939093013593505050565b5f8060408385031215610a6d575f80fd5b82359150602083013560ff81168114610a84575f80fd5b809150509250929050565b5f805f8060608587031215610aa2575f80fd5b8435935060208501359250604085013567ffffffffffffffff80821115610ac7575f80fd5b818701915087601f830112610ada575f80fd5b813581811115610ae8575f80fd5b886020828501011115610af9575f80fd5b95989497505060200194505050565b5f60208284031215610b18575f80fd5b8135610652816109dd565b6020808252600a908201526927b7363c9037bbb732b960b11b604082015260600190565b6020808252600e908201526d125b9d985b1a5908185b5bdd5b9d60921b604082015260600190565b5f60208284031215610b7f575f80fd5b81518015158114610652575f80fd5b60208152816020820152818360408301375f818301604090810191909152601f909201601f1916010191905056fea2646970667358221220f51423dc1ffcf530078f034eddd3c89f5627b8c78760f5105f573e111e145a6764736f6c63430008180033",
  "linkReferences": {},
  "deployedLinkReferences": {},
  "immutableReferences": {},
  "inputSourceName": "project/contracts/BantahEscrow.sol",
  "buildInfoId": "solc-0_8_24-6dc9da72b575e71cdb869b898707823769b7e93c"
}